{
  "contractName": "OpenBookV2",
  "abi": [
    {
      "inputs": [],
      "stateMutability": "nonpayable",
      "type": "constructor"
    },
    {
      "anonymous": false,
      "inputs": [
        {
          "indexed": false,
          "internalType": "address",
          "name": "buyer",
          "type": "address"
        },
        {
          "indexed": false,
          "internalType": "uint256",
          "name": "amount",
          "type": "uint256"
        }
      ],
      "name": "RefundSent",
      "type": "event"
    },
    {
      "inputs": [
        {
          "internalType": "address",
          "name": "",
          "type": "address"
        }
      ],
      "name": "buyerStats",
      "outputs": [
        {
          "internalType": "uint256",
          "name": "totalSalesBuyerWasPartOf",
          "type": "uint256"
        }
      ],
      "stateMutability": "view",
      "type": "function"
    },
    {
      "inputs": [],
      "name": "feeAddress",
      "outputs": [
        {
          "internalType": "address",
          "name": "",
          "type": "address"
        }
      ],
      "stateMutability": "view",
      "type": "function"
    },
    {
      "inputs": [],
      "name": "feePercentage",
      "outputs": [
        {
          "internalType": "uint8",
          "name": "",
          "type": "uint8"
        }
      ],
      "stateMutability": "view",
      "type": "function"
    },
    {
      "inputs": [],
      "name": "feesEnabled",
      "outputs": [
        {
          "internalType": "bool",
          "name": "",
          "type": "bool"
        }
      ],
      "stateMutability": "view",
      "type": "function"
    },
    {
      "inputs": [],
      "name": "owner",
      "outputs": [
        {
          "internalType": "address",
          "name": "",
          "type": "address"
        }
      ],
      "stateMutability": "view",
      "type": "function"
    },
    {
      "inputs": [
        {
          "internalType": "address",
          "name": "",
          "type": "address"
        }
      ],
      "name": "sellerStats",
      "outputs": [
        {
          "internalType": "uint256",
          "name": "totalSales",
          "type": "uint256"
        },
        {
          "internalType": "uint256",
          "name": "totalSalesPending",
          "type": "uint256"
        },
        {
          "internalType": "uint256",
          "name": "totalSalesCancelled",
          "type": "uint256"
        },
        {
          "internalType": "uint256",
          "name": "totalSalesSuccessful",
          "type": "uint256"
        }
      ],
      "stateMutability": "view",
      "type": "function"
    },
    {
      "inputs": [
        {
          "internalType": "uint256",
          "name": "",
          "type": "uint256"
        }
      ],
      "name": "sellersWithOpenBookSales",
      "outputs": [
        {
          "internalType": "address",
          "name": "",
          "type": "address"
        }
      ],
      "stateMutability": "view",
      "type": "function"
    },
    {
      "inputs": [],
      "name": "totalOpenBookSales",
      "outputs": [
        {
          "internalType": "uint256",
          "name": "",
          "type": "uint256"
        }
      ],
      "stateMutability": "view",
      "type": "function"
    },
    {
      "inputs": [
        {
          "internalType": "address",
          "name": "",
          "type": "address"
        }
      ],
      "name": "totalPendingOpenBookSalesForSeller",
      "outputs": [
        {
          "internalType": "uint256",
          "name": "",
          "type": "uint256"
        }
      ],
      "stateMutability": "view",
      "type": "function"
    },
    {
      "stateMutability": "payable",
      "type": "receive"
    },
    {
      "inputs": [
        {
          "internalType": "address",
          "name": "newFeeAddress",
          "type": "address"
        }
      ],
      "name": "setFeeAddress",
      "outputs": [],
      "stateMutability": "nonpayable",
      "type": "function"
    },
    {
      "inputs": [
        {
          "internalType": "uint8",
          "name": "newFeePercent",
          "type": "uint8"
        }
      ],
      "name": "setFeePercent",
      "outputs": [],
      "stateMutability": "nonpayable",
      "type": "function"
    },
    {
      "inputs": [
        {
          "internalType": "bool",
          "name": "newFeesEnabled",
          "type": "bool"
        }
      ],
      "name": "setFeesEnabled",
      "outputs": [],
      "stateMutability": "nonpayable",
      "type": "function"
    },
    {
      "inputs": [
        {
          "internalType": "address",
          "name": "buyer",
          "type": "address"
        }
      ],
      "name": "getSalesForBuyer",
      "outputs": [
        {
          "components": [
            {
              "internalType": "uint256",
              "name": "creationTimestamp",
              "type": "uint256"
            },
            {
              "internalType": "uint256",
              "name": "buyerAcceptedTimestamp",
              "type": "uint256"
            },
            {
              "internalType": "address",
              "name": "sellerAddress",
              "type": "address"
            },
            {
              "internalType": "address",
              "name": "presaleAddress",
              "type": "address"
            },
            {
              "internalType": "address",
              "name": "buyerAddress",
              "type": "address"
            },
            {
              "internalType": "bool",
              "name": "buyerAcceptedSaleAndSentBnbToContract",
              "type": "bool"
            },
            {
              "internalType": "bool",
              "name": "cancelled",
              "type": "bool"
            },
            {
              "internalType": "bool",
              "name": "walletAdded",
              "type": "bool"
            },
            {
              "internalType": "string",
              "name": "presalePlatform",
              "type": "string"
            },
            {
              "internalType": "bool",
              "name": "moneySentToSellerByContract",
              "type": "bool"
            },
            {
              "internalType": "uint256",
              "name": "price",
              "type": "uint256"
            },
            {
              "internalType": "uint256",
              "name": "presaleStartTime",
              "type": "uint256"
            },
            {
              "internalType": "uint256",
              "name": "presaleEndTime",
              "type": "uint256"
            }
          ],
          "internalType": "struct SaleInfo[]",
          "name": "",
          "type": "tuple[]"
        }
      ],
      "stateMutability": "view",
      "type": "function"
    },
    {
      "inputs": [
        {
          "internalType": "address",
          "name": "presale",
          "type": "address"
        },
        {
          "internalType": "address",
          "name": "walletToAdd",
          "type": "address"
        },
        {
          "internalType": "uint256",
          "name": "price",
          "type": "uint256"
        }
      ],
      "name": "createSale",
      "outputs": [],
      "stateMutability": "nonpayable",
      "type": "function"
    },
    {
      "inputs": [],
      "name": "getPendingOpenBookSales",
      "outputs": [
        {
          "components": [
            {
              "internalType": "uint256",
              "name": "creationTimestamp",
              "type": "uint256"
            },
            {
              "internalType": "uint256",
              "name": "buyerAcceptedTimestamp",
              "type": "uint256"
            },
            {
              "internalType": "address",
              "name": "sellerAddress",
              "type": "address"
            },
            {
              "internalType": "address",
              "name": "presaleAddress",
              "type": "address"
            },
            {
              "internalType": "address",
              "name": "buyerAddress",
              "type": "address"
            },
            {
              "internalType": "bool",
              "name": "buyerAcceptedSaleAndSentBnbToContract",
              "type": "bool"
            },
            {
              "internalType": "bool",
              "name": "cancelled",
              "type": "bool"
            },
            {
              "internalType": "bool",
              "name": "walletAdded",
              "type": "bool"
            },
            {
              "internalType": "string",
              "name": "presalePlatform",
              "type": "string"
            },
            {
              "internalType": "bool",
              "name": "moneySentToSellerByContract",
              "type": "bool"
            },
            {
              "internalType": "uint256",
              "name": "price",
              "type": "uint256"
            },
            {
              "internalType": "uint256",
              "name": "presaleStartTime",
              "type": "uint256"
            },
            {
              "internalType": "uint256",
              "name": "presaleEndTime",
              "type": "uint256"
            }
          ],
          "internalType": "struct SaleInfo[]",
          "name": "",
          "type": "tuple[]"
        }
      ],
      "stateMutability": "view",
      "type": "function"
    },
    {
      "inputs": [
        {
          "internalType": "address",
          "name": "seller",
          "type": "address"
        },
        {
          "internalType": "address",
          "name": "presale",
          "type": "address"
        },
        {
          "internalType": "uint256",
          "name": "price",
          "type": "uint256"
        }
      ],
      "name": "acceptSaleAsBuyer",
      "outputs": [],
      "stateMutability": "payable",
      "type": "function"
    },
    {
      "inputs": [
        {
          "internalType": "address",
          "name": "presale",
          "type": "address"
        },
        {
          "internalType": "address",
          "name": "walletToAdd",
          "type": "address"
        },
        {
          "internalType": "address",
          "name": "sellersAddress",
          "type": "address"
        }
      ],
      "name": "cancelSale",
      "outputs": [],
      "stateMutability": "nonpayable",
      "type": "function"
    },
    {
      "inputs": [
        {
          "internalType": "address",
          "name": "seller",
          "type": "address"
        },
        {
          "internalType": "address",
          "name": "presale",
          "type": "address"
        },
        {
          "internalType": "address",
          "name": "walletToAdd",
          "type": "address"
        }
      ],
      "name": "completeSale",
      "outputs": [],
      "stateMutability": "nonpayable",
      "type": "function"
    },
    {
      "inputs": [
        {
          "internalType": "address",
          "name": "seller",
          "type": "address"
        },
        {
          "internalType": "address",
          "name": "presale",
          "type": "address"
        },
        {
          "internalType": "address",
          "name": "walletToAdd",
          "type": "address"
        }
      ],
      "name": "getSaleInfo",
      "outputs": [
        {
          "components": [
            {
              "internalType": "uint256",
              "name": "creationTimestamp",
              "type": "uint256"
            },
            {
              "internalType": "uint256",
              "name": "buyerAcceptedTimestamp",
              "type": "uint256"
            },
            {
              "internalType": "address",
              "name": "sellerAddress",
              "type": "address"
            },
            {
              "internalType": "address",
              "name": "presaleAddress",
              "type": "address"
            },
            {
              "internalType": "address",
              "name": "buyerAddress",
              "type": "address"
            },
            {
              "internalType": "bool",
              "name": "buyerAcceptedSaleAndSentBnbToContract",
              "type": "bool"
            },
            {
              "internalType": "bool",
              "name": "cancelled",
              "type": "bool"
            },
            {
              "internalType": "bool",
              "name": "walletAdded",
              "type": "bool"
            },
            {
              "internalType": "string",
              "name": "presalePlatform",
              "type": "string"
            },
            {
              "internalType": "bool",
              "name": "moneySentToSellerByContract",
              "type": "bool"
            },
            {
              "internalType": "uint256",
              "name": "price",
              "type": "uint256"
            },
            {
              "internalType": "uint256",
              "name": "presaleStartTime",
              "type": "uint256"
            },
            {
              "internalType": "uint256",
              "name": "presaleEndTime",
              "type": "uint256"
            }
          ],
          "internalType": "struct SaleInfo[]",
          "name": "",
          "type": "tuple[]"
        }
      ],
      "stateMutability": "view",
      "type": "function"
    },
    {
      "inputs": [
        {
          "internalType": "address",
          "name": "seller",
          "type": "address"
        }
      ],
      "name": "getSalesForSeller",
      "outputs": [
        {
          "components": [
            {
              "internalType": "uint256",
              "name": "creationTimestamp",
              "type": "uint256"
            },
            {
              "internalType": "uint256",
              "name": "buyerAcceptedTimestamp",
              "type": "uint256"
            },
            {
              "internalType": "address",
              "name": "sellerAddress",
              "type": "address"
            },
            {
              "internalType": "address",
              "name": "presaleAddress",
              "type": "address"
            },
            {
              "internalType": "address",
              "name": "buyerAddress",
              "type": "address"
            },
            {
              "internalType": "bool",
              "name": "buyerAcceptedSaleAndSentBnbToContract",
              "type": "bool"
            },
            {
              "internalType": "bool",
              "name": "cancelled",
              "type": "bool"
            },
            {
              "internalType": "bool",
              "name": "walletAdded",
              "type": "bool"
            },
            {
              "internalType": "string",
              "name": "presalePlatform",
              "type": "string"
            },
            {
              "internalType": "bool",
              "name": "moneySentToSellerByContract",
              "type": "bool"
            },
            {
              "internalType": "uint256",
              "name": "price",
              "type": "uint256"
            },
            {
              "internalType": "uint256",
              "name": "presaleStartTime",
              "type": "uint256"
            },
            {
              "internalType": "uint256",
              "name": "presaleEndTime",
              "type": "uint256"
            }
          ],
          "internalType": "struct SaleInfo[]",
          "name": "",
          "type": "tuple[]"
        }
      ],
      "stateMutability": "view",
      "type": "function"
    },
    {
      "inputs": [],
      "name": "migratefunds",
      "outputs": [],
      "stateMutability": "nonpayable",
      "type": "function"
    },
    {
      "inputs": [
        {
          "internalType": "address",
          "name": "_owner",
          "type": "address"
        }
      ],
      "name": "setOwner",
      "outputs": [],
      "stateMutability": "nonpayable",
      "type": "function"
    }
  ],
  "bytecode": "0x608060405260006003556007805460a060020a61ffff021916750105000000000000000000000000000000000000000017905534801561003e57600080fd5b506006805433600160a060020a0319918216811790925560078054909116909117905561404b806100706000396000f3fe60806040526004361061013d5760003560e060020a90048063a901dd92116100af578063d59eed1e11610073578063d59eed1e146103a1578063e3437adb146103b4578063e5b0117a146103d4578063f483817614610437578063f76d651d14610457578063fed721781461047757600080fd5b8063a901dd92146102ff578063aeda76a71461031f578063b971cdf01461034c578063c3ca9ce414610361578063c6686aed1461038157600080fd5b80638705fcd4116101015780638705fcd4146102195780638da5cb5b1461023957806395ba624414610259578063a001ecdd1461027b578063a64e4f8a146102ae578063a7106a69146102df57600080fd5b806313af4035146101495780632fc8033b1461016b57806331bf3f6e1461019457806341275358146101cc57806346760142146101ec57600080fd5b3661014457005b600080fd5b34801561015557600080fd5b50610169610164366004613968565b610497565b005b34801561017757600080fd5b5061018160035481565b6040519081526020015b60405180910390f35b3480156101a057600080fd5b506101b46101af366004613985565b6104ef565b604051600160a060020a03909116815260200161018b565b3480156101d857600080fd5b506007546101b490600160a060020a031681565b3480156101f857600080fd5b50610181610207366004613968565b60056020526000908152604090205481565b34801561022557600080fd5b50610169610234366004613968565b610519565b34801561024557600080fd5b506006546101b490600160a060020a031681565b34801561026557600080fd5b5061026e610568565b60405161018b91906139eb565b34801561028757600080fd5b5060075461029c9060a060020a900460ff1681565b60405160ff909116815260200161018b565b3480156102ba57600080fd5b506007546102cf9060a860020a900460ff1681565b604051901515815260200161018b565b3480156102eb57600080fd5b506101696102fa366004613af6565b61084e565b34801561030b57600080fd5b5061016961031a366004613b37565b611148565b34801561032b57600080fd5b5061018161033a366004613968565b60026020526000908152604090205481565b34801561035857600080fd5b506101696111a5565b34801561036d57600080fd5b5061016961037c366004613b59565b61120f565b34801561038d57600080fd5b5061026e61039c366004613968565b611c8d565b6101696103af366004613af6565b611f82565b3480156103c057600080fd5b5061026e6103cf366004613b59565b6127d4565b3480156103e057600080fd5b506104176103ef366004613968565b6001602081905260009182526040909120805491810154600282015460039092015490919084565b60408051948552602085019390935291830152606082015260800161018b565b34801561044357600080fd5b50610169610452366004613ba4565b612b0a565b34801561046357600080fd5b50610169610472366004613b59565b612b68565b34801561048357600080fd5b5061026e610492366004613968565b6133bf565b600654600160a060020a031633146104cd5760405160e560020a62461bcd0281526004016104c490613bc7565b60405180910390fd5b60068054600160a060020a031916600160a060020a0392909216919091179055565b600481815481106104ff57600080fd5b600091825260209091200154600160a060020a0316905081565b600654600160a060020a031633146105465760405160e560020a62461bcd0281526004016104c490613bc7565b60078054600160a060020a031916600160a060020a0392909216919091179055565b6060600060035467ffffffffffffffff81111561058757610587613c24565b6040519080825280602002602001820160405280156105c057816020015b6105ad61384f565b8152602001906001900390816105a55790505b5090506000805b600454811015610846576000600482815481106105e6576105e6613c3d565b6000918252602082200154600160a060020a031691505b600160a060020a03821660009081526001602052604090205481101561083157600160a060020a038216600090815260208190526040812080548390811061064757610647613c3d565b6000918252602091829020604080516101a081018252600a909302909101805483526001810154938301939093526002830154600160a060020a03908116918301919091526003830154811660608301526004830154908116608083015260ff60a060020a82048116151560a084015260a860020a82048116151560c084015260b060020a90910416151560e0820152600582018054919291610100840191906106f090613c56565b80601f016020809104026020016040519081016040528092919081815260200182805461071c90613c56565b80156107695780601f1061073e57610100808354040283529160200191610769565b820191906000526020600020905b81548152906001019060200180831161074c57829003601f168201915b5050509183525050600682015460ff1615156020820152600782015460408201526008820154606082015260099091015460809091015260c08101519091501580156107b7575060e0810151155b80156107c5575060a0810151155b80156107dc57506080810151600160a060020a0316155b80156107ec575061014081015115155b1561081e578086868151811061080457610804613c3d565b6020026020010181905250848061081a90613cac565b9550505b508061082981613cac565b9150506105fd565b5050808061083e90613cac565b9150506105c7565b509092915050565b61085661384f565b600061086185613574565b905066038d7ea4c6800083116108e15760405160e560020a62461bcd028152602060048201526024808201527f5072696365206d7573742062652067726561746572207468616e20302e30303160448201527f20424e420000000000000000000000000000000000000000000000000000000060648201526084016104c4565b600160a060020a03841633036109625760405160e560020a62461bcd02815260206004820152603860248201527f53656c6c65722063616e6e6f742063726561746520612073616c65207769746860448201527f207468656d73656c76657320617320746865206275796572000000000000000060648201526084016104c4565b80606001514211156109b95760405160e560020a62461bcd02815260206004820152601b60248201527f50726573616c652068617320616c72656164792073746172746564000000000060448201526064016104c4565b600160a060020a038416610b7357604051806101a001604052804281526020016000815260200133600160a060020a0316815260200186600160a060020a031681526020016000600160a060020a031681526020016000151581526020016000151581526020016000151581526020016040518060400160405280600481526020017f50696e6b000000000000000000000000000000000000000000000000000000008152508152602001600015158152602001848152602001826060015181526020018260800151815250915060036000815480929190610a9a90613cac565b9091555050336000908152600560205260408120805491610aba83613cac565b91905055506000805b600454811015610b1f5733600160a060020a031660048281548110610aea57610aea613c3d565b600091825260209091200154600160a060020a031603610b0d5760019150610b1f565b80610b1781613cac565b915050610ac3565b50801515600003610b6d57600480546001810182556000919091527f8a35acfbc15ff81a39ae7d344fd709f28e8600b4aa8c65c6b64bfe7fe36bd19b018054600160a060020a031916331790555b50610c33565b604051806101a001604052804281526020016000815260200133600160a060020a0316815260200186600160a060020a0316815260200185600160a060020a031681526020016000151581526020016000151581526020016000151581526020016040518060400160405280600481526020017f50696e6b00000000000000000000000000000000000000000000000000000000815250815260200160001515815260200184815260200182606001518152602001826080015181525091505b600160a060020a03841615610f6a576000805b33600090815260208190526040902054811015610dab573360009081526020819052604090208054600160a060020a038916919083908110610c8a57610c8a613c3d565b600091825260209091206003600a909202010154600160a060020a0316148015610cf05750336000908152602081905260409020805482908110610cd057610cd0613c3d565b60009182526020909120600a909102016004015460a860020a900460ff16155b8015610d385750336000908152602081905260409020805482908110610d1857610d18613c3d565b60009182526020909120600a909102016004015460b060020a900460ff16155b8015610d8b57503360009081526020819052604090208054600160a060020a038816919083908110610d6c57610d6c613c3d565b600091825260209091206004600a909202010154600160a060020a0316145b15610d995760019150610dab565b80610da381613cac565b915050610c46565b50801515600103610e275760405160e560020a62461bcd02815260206004820152602f60248201527f596f7520616c7265616479206861766520616e206163746976652073616c652060448201527f666f7220746869732077616c6c6574000000000000000000000000000000000060648201526084016104c4565b6000805b600160a060020a038716600090815260026020526040902060010154811015610eb357600160a060020a0387166000908152600260205260409020600101805433919083908110610e7e57610e7e613c3d565b600091825260209091200154600160a060020a031603610ea15760019150610eb3565b80610eab81613cac565b915050610e2b565b50801515600003610efa57600160a060020a0386166000908152600260209081526040822060019081018054918201815583529120018054600160a060020a031916331790555b600160a060020a0386166000908152600260205260408120805491610f1e83613cac565b9091555050336000908152600160209081526040808320600160a060020a038b8116855260059091018352818420908a1684529091528120805491610f6283613cac565b919050555050505b33600090815260208181526040808320805460018181018355918552938390208651600a909502019384558583015190840155840151600283018054600160a060020a03928316600160a060020a031991821617909155606086015160038501805491841691909216179055608085015160048401805460a088015160c089015160e08a0151151560b060020a0276ff000000000000000000000000000000000000000000001991151560a860020a029190911676ffff0000000000000000000000000000000000000000001992151560a060020a0274ffffffffffffffffffffffffffffffffffffffffff199094169590961694909417919091171692909217179055610100840151805185939261108a9260058501929101906138ba565b5061012082015160068201805460ff191691151591909117905561014082015160078201556101608201516008820155610180909101516009909101553360009081526001602052604081208054916110e283613cac565b9091555050336000908152600160209081526040808320600160a060020a0389168452600401909152812080549161111983613cac565b909155505033600090815260016020819052604082200180549161113c83613cac565b91905055505050505050565b600654600160a060020a031633146111755760405160e560020a62461bcd0281526004016104c490613bc7565b6007805491151560a860020a0275ff00000000000000000000000000000000000000000019909216919091179055565b600654600160a060020a031633146111d25760405160e560020a62461bcd0281526004016104c490613bc7565b600654604051600160a060020a0390911690303180156108fc02916000818181858888f1935050505015801561120c573d6000803e3d6000fd5b50565b61121761384f565b6000805b600160a060020a03841660009081526001602052604090205481101561143557600160a060020a038416600090815260208190526040812080548390811061126557611265613c3d565b6000918252602091829020604080516101a081018252600a909302909101805483526001810154938301939093526002830154600160a060020a03908116918301919091526003830154811660608301526004830154908116608083015260ff60a060020a82048116151560a084015260a860020a82048116151560c084015260b060020a90910416151560e08201526005820180549192916101008401919061130e90613c56565b80601f016020809104026020016040519081016040528092919081815260200182805461133a90613c56565b80156113875780601f1061135c57610100808354040283529160200191611387565b820191906000526020600020905b81548152906001019060200180831161136a57829003601f168201915b5050509183525050600682015460ff1615156020820152600782015460408201526008820154606080830191909152600990920154608090910152810151909150600160a060020a0388811691161480156113e4575060c0810151155b80156113f2575060e0810151155b8015611413575085600160a060020a03168160800151600160a060020a0316145b15611422579250905080611435565b508061142d81613cac565b91505061121b565b50600160a060020a03841633036114c35781602001516000036114c35760405160e560020a62461bcd02815260206004820152602360248201527f596f752068617665206e6f7420616363657074656420746869732073616c652060448201527f796574000000000000000000000000000000000000000000000000000000000060648201526084016104c4565b81610140015160000361151b5760405160e560020a62461bcd02815260206004820152601360248201527f53616c6520646f6573206e6f742065786973740000000000000000000000000060448201526064016104c4565b8160800151600160a060020a031633600160a060020a03161415801561155757508160400151600160a060020a031633600160a060020a031614155b156115cd5760405160e560020a62461bcd02815260206004820152602c60248201527f596f7520617265206e6f7420746865206275796572206f722073656c6c65722060448201527f6f6620746869732073616c65000000000000000000000000000000000000000060648201526084016104c4565b60c0820151156116225760405160e560020a62461bcd02815260206004820152601f60248201527f53616c652068617320616c7265616479206265656e2063616e63656c6c65640060448201526064016104c4565b60e0820151156116475760405160e560020a62461bcd0281526004016104c490613cc5565b6101208201511561166d5760405160e560020a62461bcd0281526004016104c490613d22565b6080820151600160a060020a0316330361182857600061169583606001518460800151613680565b905080151560010361175e5760405160e560020a62461bcd02815260206004820152607060248201527f596f75722077616c6c65742068617320616c7265616479206265656e2061646460448201527f656420746f207468652070726573616c652e20596f752063616e27742063616e60648201527f63656c207468652073616c65206576656e20696620696620796f75207265636560848201527f6e746c792061636365707465642069740000000000000000000000000000000060a482015260c4016104c4565b60008360200151426117709190613d7f565b90504284610160015110158015611788575061012c81115b156118255760405160e560020a62461bcd028152602060048201526044602482018190527f596f752063616e27742063616e63656c20612073616c65206166746572203520908201527f6d696e75746573206f6620616363657074696e6720697420286173206120627560648201527f7965722900000000000000000000000000000000000000000000000000000000608482015260a4016104c4565b50505b600160c0830181905260a0830151151590036118c6576080820151610140830151604051600092600160a060020a03169180156108fc029184818181858888f1945050505081151560011490506118c45760405160e560020a62461bcd02815260206004820152600d60248201527f526566756e64206661696c65640000000000000000000000000000000000000060448201526064016104c4565b505b608082015161014083015160408051600160a060020a03909316835260208301919091527fe309aa15fd2f6bd8a58603632508694071e7d35e967bdbb827926e429b7ef34d910160405180910390a1600160a060020a038316600090815260016020526040812060020180549161193c83613cac565b9091555050600160a060020a038316600090815260016020819052604082200180549161196883613d96565b9091555050600160a060020a038316600090815260208190526040902080548391908390811061199a5761199a613c3d565b60009182526020918290208351600a909202019081558282015160018201556040830151600282018054600160a060020a03928316600160a060020a031991821617909155606085015160038401805491841691909216179055608084015160048301805460a087015160c088015160e0890151151560b060020a0276ff000000000000000000000000000000000000000000001991151560a860020a029190911676ffff0000000000000000000000000000000000000000001992151560a060020a0274ffffffffffffffffffffffffffffffffffffffffff19909416959096169490941791909117169290921717905561010083015180519192611aa8926005850192909101906138ba565b5061012082015160068201805460ff1916911515919091179055610140820151600782015561016082015160088201556101809091015160099091015560035415611b035760038054906000611afd83613d96565b91905055505b604080830151600160a060020a031660009081526005602052205415611b5157604080830151600160a060020a031660009081526005602052908120805491611b4b83613d96565b91905055505b604080830151600160a060020a031660009081526005602052908120549003611c865760005b600454811015611c84578260400151600160a060020a031660048281548110611ba257611ba2613c3d565b600091825260209091200154600160a060020a031603611c7257600454600090611bce90600190613d7f565b905060048181548110611be357611be3613c3d565b60009182526020909120015460048054600160a060020a039092169184908110611c0f57611c0f613c3d565b9060005260206000200160006101000a815481600160a060020a030219169083600160a060020a031602179055506004805480611c4e57611c4e613dad565b60008281526020902081016000199081018054600160a060020a0319169055019055505b80611c7c81613cac565b915050611b77565b505b5050505050565b600160a060020a0381166000908152600260205260408120546060919067ffffffffffffffff811115611cc257611cc2613c24565b604051908082528060200260200182016040528015611cfb57816020015b611ce861384f565b815260200190600190039081611ce05790505b5090506000805b600160a060020a038516600090815260026020526040902060010154811015611f7957600160a060020a0385166000908152600260205260408120600101805483908110611d5257611d52613c3d565b6000918252602082200154600160a060020a031691505b600160a060020a038216600090815260016020526040902054811015611f6457600160a060020a0382166000908152602081905260408120805483908110611db357611db3613c3d565b6000918252602091829020604080516101a081018252600a909302909101805483526001810154938301939093526002830154600160a060020a03908116918301919091526003830154811660608301526004830154908116608083015260ff60a060020a82048116151560a084015260a860020a82048116151560c084015260b060020a90910416151560e082015260058201805491929161010084019190611e5c90613c56565b80601f0160208091040260200160405190810160405280929190818152602001828054611e8890613c56565b8015611ed55780601f10611eaa57610100808354040283529160200191611ed5565b820191906000526020600020905b815481529060010190602001808311611eb857829003601f168201915b5050509183525050600682015460ff16151560208201526007820154604082015260088201546060820152600990910154608091820152810151909150600160a060020a03808a16911603611f515780868681518110611f3757611f37613c3d565b60200260200101819052508480611f4d90613cac565b9550505b5080611f5c81613cac565b915050611d69565b50508080611f7190613cac565b915050611d02565b50909392505050565b611f8a61384f565b6000600160a060020a0385163303611fe75760405160e560020a62461bcd02815260206004820152601f60248201527f596f752063616e6e6f742061636365707420796f7572206f776e2073616c650060448201526064016104c4565b60005b600160a060020a03861660009081526001602052604090205481101561220157600160a060020a038616600090815260208190526040812080548390811061203457612034613c3d565b6000918252602091829020604080516101a081018252600a909302909101805483526001810154938301939093526002830154600160a060020a03908116918301919091526003830154811660608301526004830154908116608083015260ff60a060020a82048116151560a084015260a860020a82048116151560c084015260b060020a90910416151560e0820152600582018054919291610100840191906120dd90613c56565b80601f016020809104026020016040519081016040528092919081815260200182805461210990613c56565b80156121565780601f1061212b57610100808354040283529160200191612156565b820191906000526020600020905b81548152906001019060200180831161213957829003601f168201915b5050509183525050600682015460ff1615156020820152600782015460408201526008820154606080830191909152600990920154608090910152810151909150600160a060020a0387811691161480156121b3575060c0810151155b80156121c1575060e0810151155b80156121cf575060a0810151155b80156121df575084816101400151145b156121ee579250905080612201565b50806121f981613cac565b915050611fea565b506080820151600160a060020a0316158061222857506080820151600160a060020a031633145b61229d5760405160e560020a62461bcd02815260206004820152603f60248201527f596f7520617265206e6f742074686520627579657220666f722074686973207360448201527f616c65206e6f7220697320697420616e206f70656e20626f6f6b2073616c650060648201526084016104c4565b8161014001516000036122f55760405160e560020a62461bcd02815260206004820152601360248201527f53616c6520646f6573206e6f742065786973740000000000000000000000000060448201526064016104c4565b81610140015134146123725760405160e560020a62461bcd02815260206004820152602760248201527f596f75206d7573742073656e642074686520657861637420616d6f756e74206f60448201527f662045544845520000000000000000000000000000000000000000000000000060648201526084016104c4565b6080820151600160a060020a031661264557336080830181905260009081526002602052604081208054916123a683613cac565b9091555050600160a060020a03808616600090815260016020908152604080832093881683526005909301815282822033835290529081208054916123ea83613cac565b9091555050600380549060006123ff83613d96565b9091555050600160a060020a038516600090815260056020526040812080549161242883613d96565b9091555050600160a060020a038516600090815260056020526040812054900361255a5760005b6004548110156125585785600160a060020a03166004828154811061247657612476613c3d565b600091825260209091200154600160a060020a031603612546576004546000906124a290600190613d7f565b9050600481815481106124b7576124b7613c3d565b60009182526020909120015460048054600160a060020a0390921691849081106124e3576124e3613c3d565b9060005260206000200160006101000a815481600160a060020a030219169083600160a060020a03160217905550600480548061252257612522613dad565b60008281526020902081016000199081018054600160a060020a0319169055019055505b8061255081613cac565b91505061244f565b505b6000805b6080840151600160a060020a03166000908152600260205260409020600101548110156125f1576080840151600160a060020a039081166000908152600260205260409020600101805491891691839081106125bc576125bc613c3d565b600091825260209091200154600160a060020a0316036125df57600191506125f1565b806125e981613cac565b91505061255e565b50801515600003612643576080830151600160a060020a039081166000908152600260209081526040822060019081018054918201815583529120018054600160a060020a0319169188169190911790555b505b600160a083015242602080840191909152600160a060020a0386166000908152908190526040902080548391908390811061268257612682613c3d565b60009182526020918290208351600a909202019081558282015160018201556040830151600282018054600160a060020a03928316600160a060020a031991821617909155606085015160038401805491841691909216179055608084015160048301805460a087015160c088015160e0890151151560b060020a0276ff000000000000000000000000000000000000000000001991151560a860020a029190911676ffff0000000000000000000000000000000000000000001992151560a060020a0274ffffffffffffffffffffffffffffffffffffffffff19909416959096169490941791909117169290921717905561010083015180519192612790926005850192909101906138ba565b5061012082015160068201805460ff191691151591909117905561014082015160078201556101608201516008820155610180909101516009909101555050505050565b600160a060020a038084166000908152600160209081526040808320868516845260050182528083209385168352929052908120546060919067ffffffffffffffff81111561282557612825613c24565b60405190808252806020026020018201604052801561285e57816020015b61284b61384f565b8152602001906001900390816128435790505b5090506000805b600160a060020a038716600090815260016020526040902054811015612a8657600160a060020a03871660009081526020819052604081208054839081106128af576128af613c3d565b6000918252602091829020604080516101a081018252600a909302909101805483526001810154938301939093526002830154600160a060020a03908116918301919091526003830154811660608301526004830154908116608083015260ff60a060020a82048116151560a084015260a860020a82048116151560c084015260b060020a90910416151560e08201526005820180549192916101008401919061295890613c56565b80601f016020809104026020016040519081016040528092919081815260200182805461298490613c56565b80156129d15780601f106129a6576101008083540402835291602001916129d1565b820191906000526020600020905b8154815290600101906020018083116129b457829003601f168201915b5050509183525050600682015460ff1615156020820152600782015460408201526008820154606080830191909152600990920154608090910152810151909150600160a060020a038881169116148015612a41575085600160a060020a03168160800151600160a060020a0316145b15612a735780848481518110612a5957612a59613c3d565b60200260200101819052508280612a6f90613cac565b9350505b5080612a7e81613cac565b915050612865565b508151600003612b015760405160e560020a62461bcd02815260206004820152603260248201527f43616e2774206765742073616c6520696e666f206f6620612073616c6520746860448201527f617420646f65736e27742065786973742e20000000000000000000000000000060648201526084016104c4565b50949350505050565b600654600160a060020a03163314612b375760405160e560020a62461bcd0281526004016104c490613bc7565b6007805460ff90921660a060020a0274ff000000000000000000000000000000000000000019909216919091179055565b612b7061384f565b6000805b600160a060020a038616600090815260016020526040902054811015612da057600160a060020a0386166000908152602081905260408120805483908110612bbe57612bbe613c3d565b6000918252602091829020604080516101a081018252600a909302909101805483526001810154938301939093526002830154600160a060020a03908116918301919091526003830154811660608301526004830154908116608083015260ff60a060020a82048116151560a084015260a860020a82048116151560c084015260b060020a90910416151560e082015260058201805491929161010084019190612c6790613c56565b80601f0160208091040260200160405190810160405280929190818152602001828054612c9390613c56565b8015612ce05780601f10612cb557610100808354040283529160200191612ce0565b820191906000526020600020905b815481529060010190602001808311612cc357829003601f168201915b5050509183525050600682015460ff1615156020820152600782015460408201526008820154606080830191909152600990920154608090910152810151909150600160a060020a038781169116148015612d3d575060c0810151155b8015612d4b575060e0810151155b8015612d6c575084600160a060020a03168160800151600160a060020a0316145b8015612d7e575060a081015115156001145b15612d8d579250905080612da0565b5080612d9881613cac565b915050612b74565b50816101400151600003612eb85760405160e560020a62461bcd0281526020600482015260b660248201527f4e6f2076616c69642073616c6520666f756e642e204d757374206e6f7420626560448201527f2063616e63656c6c65642c2077616c6c6574206d757374206e6f74206265206160648201527f646465642c206275796572206d7573742068617665206163636570746564207360848201527f616c6520616e642073656e7420424e4220746f20636f6e74726163742c20616e60a48201527f64206d6f6e6579206d757374206e6f742068617665206265656e2073656e742060c48201527f746f2073656c6c657220627920636f6e74726163742e0000000000000000000060e4820152610104016104c4565b60a08201511515600114612f375760405160e560020a62461bcd02815260206004820152603860248201527f427579657220686173206e6f742061636365707465642073616c6520616e642060448201527f73656e7420424e4220746f2074686520636f6e7472616374000000000000000060648201526084016104c4565b60c082015115612f8c5760405160e560020a62461bcd02815260206004820152601760248201527f53616c6520686173206265656e2063616e63656c6c656400000000000000000060448201526064016104c4565b60e082015115612fb15760405160e560020a62461bcd0281526004016104c490613cc5565b61012082015115612fd75760405160e560020a62461bcd0281526004016104c490613d22565b42826101600151111561302f5760405160e560020a62461bcd02815260206004820152601b60248201527f50726573616c6520686173206e6f74207374617274656420796574000000000060448201526064016104c4565b600061304383606001518460800151613680565b90508015156000036130c05760405160e560020a62461bcd02815260206004820152603060248201527f427579657227732077616c6c657420686173206e6f74206265656e206164646560448201527f6420746f207468652070726573616c650000000000000000000000000000000060648201526084016104c4565b600160e0840181905260a0840151151590036131e75760075460a860020a900460ff1615156001036131a25760075461014084015160009160649161310f9160a060020a900460ff1690613dc6565b6131199190613de5565b600754604051919250600160a060020a03169082156108fc029083906000818181858888f19350505050158015613154573d6000803e3d6000fd5b5086600160a060020a03166108fc828661014001516131739190613d7f565b6040518115909202916000818181858888f1935050505015801561319b573d6000803e3d6000fd5b50506131de565b610140830151604051600160a060020a0388169180156108fc02916000818181858888f193505050501580156131dc573d6000803e3d6000fd5b505b60016101208401525b600160a060020a038616600090815260208190526040902080548491908490811061321457613214613c3d565b60009182526020918290208351600a909202019081558282015160018201556040830151600282018054600160a060020a03928316600160a060020a031991821617909155606085015160038401805491841691909216179055608084015160048301805460a087015160c088015160e0890151151560b060020a0276ff000000000000000000000000000000000000000000001991151560a860020a029190911676ffff0000000000000000000000000000000000000000001992151560a060020a0274ffffffffffffffffffffffffffffffffffffffffff19909416959096169490941791909117169290921717905561010083015180519192613322926005850192909101906138ba565b5061012082015160068201805460ff19169115159190911790556101408201516007820155610160820151600882015561018090910151600990910155600160a060020a038616600090815260016020526040812060030180549161338683613cac565b9091555050600160a060020a03861660009081526001602081905260408220018054916133b283613d96565b9190505550505050505050565b600160a060020a038116600090815260208181526040808320805482518185028101850190935280835260609492939192909184015b82821015613569576000848152602090819020604080516101a081018252600a8602909201805483526001810154938301939093526002830154600160a060020a03908116918301919091526003830154811660608301526004830154908116608083015260ff60a060020a82048116151560a084015260a860020a82048116151560c084015260b060020a90910416151560e0820152600582018054919291610100840191906134a590613c56565b80601f01602080910402602001604051908101604052809291908181526020018280546134d190613c56565b801561351e5780601f106134f35761010080835404028352916020019161351e565b820191906000526020600020905b81548152906001019060200180831161350157829003601f168201915b5050509183525050600682015460ff161515602080830191909152600783015460408301526008830154606083015260099092015460809091015290825260019290920191016133f5565b505050509050919050565b61360e6040518061018001604052806000600160a060020a031681526020016000600160a060020a03168152602001600081526020016000815260200160008152602001600081526020016000815260200160008152602001600081526020016000815260200160006fffffffffffffffffffffffffffffffff16815260200160006fffffffffffffffffffffffffffffffff1681525090565b600082905080600160a060020a031663db92feca6040518163ffffffff1660e060020a02815260040161018060405180830381865afa158015613655573d6000803e3d6000fd5b505050506040513d601f19601f820116820180604052508101906136799190613e95565b9392505050565b600080839050600081600160a060020a031663d9128c856040518163ffffffff1660e060020a028152600401602060405180830381865afa1580156136c9573d6000803e3d6000fd5b505050506040513d601f19601f820116820180604052508101906136ed9190613f4b565b90508060000361370257600092505050613849565b600082600160a060020a031663f0bc3474600085600160a060020a031663d9128c856040518163ffffffff1660e060020a028152600401602060405180830381865afa158015613756573d6000803e3d6000fd5b505050506040513d601f19601f8201168201806040525081019061377a9190613f4b565b60405160e060020a63ffffffff851602815260048101929092526024820152604401600060405180830381865afa1580156137b9573d6000803e3d6000fd5b505050506040513d6000823e601f3d908101601f191682016040526137e19190810190613f64565b905060005b81518110156138405785600160a060020a031682828151811061380b5761380b613c3d565b6020026020010151600160a060020a03160361382e576001945050505050613849565b8061383881613cac565b9150506137e6565b50600093505050505b92915050565b604080516101a08101825260008082526020820181905291810182905260608082018390526080820183905260a0820183905260c0820183905260e0820183905261010082015261012081018290526101408101829052610160810182905261018081019190915290565b8280546138c690613c56565b90600052602060002090601f0160209004810192826138e8576000855561392e565b82601f1061390157805160ff191683800117855561392e565b8280016001018555821561392e579182015b8281111561392e578251825591602001919060010190613913565b5061393a92915061393e565b5090565b5b8082111561393a576000815560010161393f565b600160a060020a038116811461120c57600080fd5b60006020828403121561397a57600080fd5b813561367981613953565b60006020828403121561399757600080fd5b5035919050565b6000815180845260005b818110156139c4576020818501810151868301820152016139a8565b818111156139d6576000602083870101525b50601f01601f19169290920160200192915050565b60208082528251828201819052600091906040908185019080840286018301878501865b83811015613ae857603f19898403018552815180518452878101518885015286810151600160a060020a03908116888601526060808301518216908601526080808301519091169085015260a08082015115159085015260c08082015115159085015260e080820151151590850152610100808201516101a08287018190529190613a9c8388018261399e565b9250505061012080830151613ab48288018215159052565b5050610140828101519086015261016080830151908601526101809182015191909401529386019390860190600101613a0f565b509098975050505050505050565b600080600060608486031215613b0b57600080fd5b8335613b1681613953565b92506020840135613b2681613953565b929592945050506040919091013590565b600060208284031215613b4957600080fd5b8135801515811461367957600080fd5b600080600060608486031215613b6e57600080fd5b8335613b7981613953565b92506020840135613b8981613953565b91506040840135613b9981613953565b809150509250925092565b600060208284031215613bb657600080fd5b813560ff8116811461367957600080fd5b60208082526021908201527f4f6e6c79206f776e65722063616e2063616c6c20746869732066756e6374696f60408201527f6e00000000000000000000000000000000000000000000000000000000000000606082015260800190565b60e060020a634e487b7102600052604160045260246000fd5b60e060020a634e487b7102600052603260045260246000fd5b600281046001821680613c6a57607f821691505b602082108103613c8d5760e060020a634e487b7102600052602260045260246000fd5b50919050565b60e060020a634e487b7102600052601160045260246000fd5b600060018201613cbe57613cbe613c93565b5060010190565b6020808252602c908201527f57616c6c65742068617320616c7265616479206265656e20616464656420746f60408201527f207468652070726573616c650000000000000000000000000000000000000000606082015260800190565b60208082526029908201527f4d6f6e65792068617320616c7265616479206265656e2073656e7420746f207460408201527f68652073656c6c65720000000000000000000000000000000000000000000000606082015260800190565b600082821015613d9157613d91613c93565b500390565b600081613da557613da5613c93565b506000190190565b60e060020a634e487b7102600052603160045260246000fd5b6000816000190483118215151615613de057613de0613c93565b500290565b600082613e055760e060020a634e487b7102600052601260045260246000fd5b500490565b604051610180810167ffffffffffffffff81118282101715613e2e57613e2e613c24565b60405290565b604051601f8201601f1916810167ffffffffffffffff81118282101715613e5d57613e5d613c24565b604052919050565b8051613e7081613953565b919050565b80516fffffffffffffffffffffffffffffffff81168114613e7057600080fd5b60006101808284031215613ea857600080fd5b613eb0613e0a565b613eb983613e65565b8152613ec760208401613e65565b602082015260408301516040820152606083015160608201526080830151608082015260a083015160a082015260c083015160c082015260e083015160e0820152610100808401518183015250610120808401518183015250610140613f2e818501613e75565b90820152610160613f40848201613e75565b908201529392505050565b600060208284031215613f5d57600080fd5b5051919050565b60006020808385031215613f7757600080fd5b825167ffffffffffffffff80821115613f8f57600080fd5b818501915085601f830112613fa357600080fd5b815181811115613fb557613fb5613c24565b8381029150613fc5848301613e34565b8181529183018401918481019088841115613fdf57600080fd5b938501935b838510156140095784519250613ff983613953565b8282529385019390850190613fe4565b9897505050505050505056fea2646970667358221220d793ca5a952338413f3994665ba7b6aef1ca2575f99a6c6e0881c79512156c0364736f6c634300080e0033",
  "immutableReferences": {},
  "source": "// SPDX-License-Identifier: MIT\r\n// Version: 1.0.2\r\npragma solidity >=0.4.22 <0.9.0;\r\n\r\nstruct SaleInfo {\r\n    uint256 creationTimestamp;\r\n    uint256 buyerAcceptedTimestamp;\r\n    address sellerAddress;\r\n    address presaleAddress;\r\n    address buyerAddress;\r\n    bool buyerAcceptedSaleAndSentBnbToContract;\r\n    bool cancelled;\r\n    bool walletAdded;\r\n    string presalePlatform;\r\n    bool moneySentToSellerByContract;\r\n    uint256 price;\r\n    uint256 presaleStartTime;\r\n    uint256 presaleEndTime;\r\n}\r\nstruct PoolSettings {\r\n    address token;\r\n    address currency;\r\n    uint256 rate;\r\n    uint256 startTime;\r\n    uint256 endTime;\r\n    uint256 presaleRate;\r\n    uint256 softCap;\r\n    uint256 hardCap;\r\n    uint256 listingRate;\r\n    uint256 liqLockDays;\r\n    uint128 liquidityPercent;\r\n    uint128 tokenFeePercent;\r\n}\r\n\r\ninterface IPinksaleContract {\r\n    function getNumberOfWhitelistedUsers() external view returns (uint256);\r\n\r\n    function poolSettings() external view returns (PoolSettings memory);\r\n\r\n    function getWhitelistedUsers(\r\n        uint256 startIndex,\r\n        uint256 endIndex\r\n    ) external view returns (address[] memory);\r\n}\r\n\r\nstruct WalletAddedStats {\r\n    mapping(address => uint256) salesToABuyerForAPresale;\r\n}\r\n// needed to calculate size of arrays to return in function\r\nstruct SellerStats {\r\n    uint256 totalSales;\r\n    uint256 totalSalesPending;\r\n    uint256 totalSalesCancelled;\r\n    uint256 totalSalesSuccessful;\r\n    mapping(address => uint256) totalSalesForAPresale;\r\n    // only have these mappings so I can get multiple sales to the same buyer for a presale\r\n    mapping(address => WalletAddedStats) totalSalesToABuyerForAPresale; // key is presale. value is a mapping of wallet to number of sales to that wallet\r\n}\r\n\r\n// Create a struct for the buyer, use this to track sales with each buyer etc\r\n\r\nstruct BuyerStats {\r\n    uint256 totalSalesBuyerWasPartOf;\r\n    address[] sellersBuyerHasDealtWith;\r\n\r\n    // return final array of SellerStats, the size will be totalSalesBuyerWasPartOf.\r\n    // each element in the array will be a SellerStats struct\r\n\r\n    // loop through sellers buyer dealt with\r\n    // for each seller, loop through their sales and add to array if buyer is part of it\r\n\r\n    // return array\r\n}\r\n\r\ncontract OpenBookV2 {\r\n    mapping(address => SaleInfo[]) sales;\r\n    mapping(address => SellerStats) public sellerStats;\r\n    mapping(address => BuyerStats) public buyerStats;\r\n    uint256 public totalOpenBookSales = 0;\r\n    address[] public sellersWithOpenBookSales;\r\n    mapping(address => uint256) public totalPendingOpenBookSalesForSeller;\r\n\r\n    address public owner;\r\n    address public feeAddress;\r\n    uint8 public feePercentage = 5;\r\n    bool public feesEnabled = true;\r\n\r\n    constructor() {\r\n        owner = msg.sender;\r\n        feeAddress = msg.sender;\r\n    }\r\n\r\n    modifier onlyOwner() {\r\n        require(msg.sender == owner, \"Only owner can call this function\");\r\n        _;\r\n    }\r\n\r\n    function setFeeAddress(address newFeeAddress) public onlyOwner {\r\n        feeAddress = newFeeAddress;\r\n    }\r\n\r\n    function setFeePercent(uint8 newFeePercent) public onlyOwner {\r\n        feePercentage = newFeePercent;\r\n    }\r\n\r\n    function setFeesEnabled(bool newFeesEnabled) public onlyOwner {\r\n        feesEnabled = newFeesEnabled;\r\n    }\r\n\r\n    function getPoolSettings(\r\n        address presale\r\n    ) internal view returns (PoolSettings memory) {\r\n        IPinksaleContract presaleInstance = IPinksaleContract(presale);\r\n        return presaleInstance.poolSettings();\r\n    }\r\n\r\n    function isUserWhitelistedCustom(\r\n        address presale,\r\n        address user\r\n    ) internal view returns (bool) {\r\n        IPinksaleContract presaleInstance = IPinksaleContract(presale);\r\n        uint numberOfWhitelistedUsers = presaleInstance\r\n            .getNumberOfWhitelistedUsers();\r\n        if (numberOfWhitelistedUsers == 0) {\r\n            return false;\r\n        }\r\n        address[] memory users = presaleInstance.getWhitelistedUsers(\r\n            0,\r\n            presaleInstance.getNumberOfWhitelistedUsers()\r\n        );\r\n\r\n        for (uint256 i = 0; i < users.length; i++) {\r\n            if (users[i] == user) {\r\n                return true;\r\n            }\r\n        }\r\n\r\n        return false;\r\n    }\r\n\r\n    function getSalesForBuyer(\r\n        address buyer\r\n    ) public view returns (SaleInfo[] memory) {\r\n        SaleInfo[] memory salesForBuyer = new SaleInfo[](\r\n            buyerStats[buyer].totalSalesBuyerWasPartOf\r\n        );\r\n        uint256 index = 0;\r\n\r\n        for (\r\n            uint256 i = 0;\r\n            i < buyerStats[buyer].sellersBuyerHasDealtWith.length;\r\n            i++\r\n        ) {\r\n            address seller = buyerStats[buyer].sellersBuyerHasDealtWith[i];\r\n            for (uint256 j = 0; j < sellerStats[seller].totalSales; j++) {\r\n                SaleInfo memory sale = sales[seller][j];\r\n                if (sale.buyerAddress == buyer) {\r\n                    salesForBuyer[index] = sale;\r\n                    index++;\r\n                }\r\n            }\r\n        }\r\n\r\n        return salesForBuyer;\r\n    }\r\n\r\n    function createSale(\r\n        address presale,\r\n        address walletToAdd,\r\n        uint256 price\r\n    ) public {\r\n        SaleInfo memory saleInfo;\r\n        PoolSettings memory poolSettings = getPoolSettings(presale);\r\n\r\n        require(price > 0.001 ether, \"Price must be greater than 0.001 BNB\");\r\n\r\n        require(\r\n            msg.sender != walletToAdd,\r\n            \"Seller cannot create a sale with themselves as the buyer\"\r\n        );\r\n\r\n        if (block.timestamp > poolSettings.startTime) {\r\n            revert(\"Presale has already started\");\r\n        }\r\n\r\n        if (walletToAdd == address(0)) {\r\n            saleInfo = SaleInfo({\r\n                buyerAcceptedTimestamp: 0,\r\n                creationTimestamp: block.timestamp,\r\n                sellerAddress: msg.sender,\r\n                presaleAddress: presale,\r\n                buyerAddress: address(0),\r\n                buyerAcceptedSaleAndSentBnbToContract: false,\r\n                cancelled: false,\r\n                walletAdded: false,\r\n                presalePlatform: \"Pink\",\r\n                moneySentToSellerByContract: false,\r\n                price: price,\r\n                presaleStartTime: poolSettings.startTime,\r\n                presaleEndTime: poolSettings.endTime\r\n            });\r\n\r\n            totalOpenBookSales++;\r\n            totalPendingOpenBookSalesForSeller[msg.sender]++;\r\n            // check if seller already has an open book sale\r\n            bool sellerHasOpenBookSale = false;\r\n            for (uint256 i = 0; i < sellersWithOpenBookSales.length; i++) {\r\n                if (sellersWithOpenBookSales[i] == msg.sender) {\r\n                    sellerHasOpenBookSale = true;\r\n                    // save gas and break, if we dont then we will have to loop through all the sales\r\n                    break;\r\n                }\r\n            }\r\n\r\n            if (sellerHasOpenBookSale == false) {\r\n                sellersWithOpenBookSales.push(msg.sender);\r\n            }\r\n        } else {\r\n            saleInfo = SaleInfo({\r\n                buyerAcceptedTimestamp: 0,\r\n                creationTimestamp: block.timestamp,\r\n                sellerAddress: msg.sender,\r\n                presaleAddress: presale,\r\n                buyerAddress: walletToAdd,\r\n                buyerAcceptedSaleAndSentBnbToContract: false,\r\n                cancelled: false,\r\n                walletAdded: false,\r\n                presalePlatform: \"Pink\",\r\n                moneySentToSellerByContract: false,\r\n                price: price,\r\n                presaleStartTime: poolSettings.startTime,\r\n                presaleEndTime: poolSettings.endTime\r\n            });\r\n        }\r\n\r\n        // if we are adding a specific wallet, check that the seller doesn't already have ongoing sale for that wallet\r\n        if (walletToAdd != address(0)) {\r\n            bool buyersWalletAlreadyExists = false;\r\n\r\n            for (uint256 i = 0; i < sales[msg.sender].length; i++) {\r\n                if (\r\n                    sales[msg.sender][i].presaleAddress == presale &&\r\n                    sales[msg.sender][i].cancelled == false &&\r\n                    sales[msg.sender][i].walletAdded == false &&\r\n                    sales[msg.sender][i].buyerAddress == walletToAdd\r\n                ) {\r\n                    buyersWalletAlreadyExists = true;\r\n                    // save gas and break, if we dont then we will have to loop through all the sales\r\n                    break;\r\n                }\r\n            }\r\n            if (buyersWalletAlreadyExists == true) {\r\n                revert(\"You already have an active sale for this wallet\");\r\n            }\r\n\r\n            bool hasBuyerDealtWithSeller = false;\r\n\r\n            for (\r\n                uint256 i = 0;\r\n                i < buyerStats[walletToAdd].sellersBuyerHasDealtWith.length;\r\n                i++\r\n            ) {\r\n                if (\r\n                    buyerStats[walletToAdd].sellersBuyerHasDealtWith[i] ==\r\n                    msg.sender\r\n                ) {\r\n                    hasBuyerDealtWithSeller = true;\r\n                    // save gas and break, if we dont then we will have to loop through all the sales\r\n                    break;\r\n                }\r\n            }\r\n\r\n            if (hasBuyerDealtWithSeller == false) {\r\n                buyerStats[walletToAdd].sellersBuyerHasDealtWith.push(\r\n                    msg.sender\r\n                );\r\n            }\r\n\r\n            // we are not doing this for an open book sale!!!!! Remember to increment the buyer stats for an open book sale\r\n            // the same for the seller stat for that would be buyer!!!!\r\n            buyerStats[walletToAdd].totalSalesBuyerWasPartOf++;\r\n            sellerStats[msg.sender]\r\n                .totalSalesToABuyerForAPresale[presale]\r\n                .salesToABuyerForAPresale[walletToAdd]++;\r\n        }\r\n        // if we are creating open book sale, when a buyer accepts it increment the totalSalesHe/She was part of.\r\n\r\n        sales[msg.sender].push(saleInfo);\r\n        sellerStats[msg.sender].totalSales++;\r\n        sellerStats[msg.sender].totalSalesForAPresale[presale]++;\r\n        sellerStats[msg.sender].totalSalesPending++;\r\n    }\r\n\r\n    function getPendingOpenBookSales() public view returns (SaleInfo[] memory) {\r\n        SaleInfo[] memory pendingSales = new SaleInfo[](totalOpenBookSales);\r\n        uint256 index = 0;\r\n\r\n        for (uint256 i = 0; i < sellersWithOpenBookSales.length; i++) {\r\n            address seller = sellersWithOpenBookSales[i];\r\n            for (uint256 j = 0; j < sellerStats[seller].totalSales; j++) {\r\n                SaleInfo memory sale = sales[seller][j];\r\n                if (\r\n                    sale.cancelled == false &&\r\n                    sale.walletAdded == false &&\r\n                    sale.buyerAcceptedSaleAndSentBnbToContract == false &&\r\n                    sale.buyerAddress == address(0) &&\r\n                    sale.price != 0\r\n                ) {\r\n                    pendingSales[index] = sale;\r\n                    index++;\r\n                }\r\n            }\r\n        }\r\n\r\n        return pendingSales;\r\n    }\r\n\r\n    function acceptSaleAsBuyer(\r\n        address seller,\r\n        address presale,\r\n        uint256 price\r\n    ) public payable {\r\n        SaleInfo memory saleInfo;\r\n        uint256 saleIndex;\r\n\r\n        require(msg.sender != seller, \"You cannot accept your own sale\");\r\n\r\n        for (uint256 i = 0; i < sellerStats[seller].totalSales; i++) {\r\n            SaleInfo memory sale = sales[seller][i];\r\n\r\n            if (\r\n                (sale.presaleAddress == presale &&\r\n                    sale.cancelled == false &&\r\n                    sale.walletAdded == false &&\r\n                    sale.buyerAcceptedSaleAndSentBnbToContract == false &&\r\n                    sale.price == price)\r\n            ) {\r\n                saleIndex = i;\r\n                saleInfo = sale;\r\n                // save gas and break, if we dont then we will have to loop through all the sales\r\n                break;\r\n                // this is the sale we want to accept, can be open booking or specific wallet\r\n            }\r\n        }\r\n\r\n        require(\r\n            saleInfo.buyerAddress == address(0) ||\r\n                saleInfo.buyerAddress == msg.sender,\r\n            \"You are not the buyer for this sale nor is it an open book sale\"\r\n        );\r\n\r\n        if (saleInfo.price == 0) {\r\n            revert(\"Sale does not exist\");\r\n        }\r\n        require(\r\n            msg.value == saleInfo.price,\r\n            \"You must send the exact amount of ETHER\"\r\n        );\r\n\r\n        // if buyer accepted open book sale, set buyer address to msg.sender\r\n        if (saleInfo.buyerAddress == address(0)) {\r\n            saleInfo.buyerAddress = msg.sender;\r\n            buyerStats[msg.sender].totalSalesBuyerWasPartOf++;\r\n            sellerStats[seller]\r\n                .totalSalesToABuyerForAPresale[presale]\r\n                .salesToABuyerForAPresale[msg.sender]++;\r\n\r\n            totalOpenBookSales--;\r\n            totalPendingOpenBookSalesForSeller[seller]--;\r\n            // remove seller from sellersWithOpenBookSales if he has no more open book sales\r\n            if (totalPendingOpenBookSalesForSeller[seller] == 0) {\r\n                for (uint256 i = 0; i < sellersWithOpenBookSales.length; i++) {\r\n                    if (sellersWithOpenBookSales[i] == seller) {\r\n                        uint256 lastIndex = sellersWithOpenBookSales.length - 1;\r\n                        sellersWithOpenBookSales[i] = sellersWithOpenBookSales[\r\n                            lastIndex\r\n                        ];\r\n\r\n                        sellersWithOpenBookSales.pop();\r\n                    }\r\n                }\r\n            }\r\n\r\n            bool hasBuyerDealtWithSeller = false;\r\n\r\n            for (\r\n                uint256 i = 0;\r\n                i <\r\n                buyerStats[saleInfo.buyerAddress]\r\n                    .sellersBuyerHasDealtWith\r\n                    .length;\r\n                i++\r\n            ) {\r\n                if (\r\n                    buyerStats[saleInfo.buyerAddress].sellersBuyerHasDealtWith[\r\n                        i\r\n                    ] == seller\r\n                ) {\r\n                    hasBuyerDealtWithSeller = true;\r\n                    // save gas and break, if we dont then we will have to loop through all the sales\r\n                    break;\r\n                }\r\n            }\r\n\r\n            if (hasBuyerDealtWithSeller == false) {\r\n                buyerStats[saleInfo.buyerAddress].sellersBuyerHasDealtWith.push(\r\n                    seller\r\n                );\r\n            }\r\n        }\r\n        saleInfo.buyerAcceptedSaleAndSentBnbToContract = true;\r\n        saleInfo.buyerAcceptedTimestamp = block.timestamp;\r\n\r\n        sales[seller][saleIndex] = saleInfo;\r\n    }\r\n\r\n    // both seller and buyer can cancel a sale. here buyer can onlu cancel within 5 minutes of accepting the sale\r\n\r\n    event RefundSent(address buyer, uint256 amount);\r\n\r\n    function cancelSale(\r\n        address presale,\r\n        address walletToAdd,\r\n        address sellersAddress\r\n    ) public {\r\n        SaleInfo memory saleInfo;\r\n        uint256 saleIndex;\r\n\r\n        // deal with scenario when buyer hasnt accepted and is trying to cancel.\r\n        // rn it deals by saying that time difference is block.timestamp .\r\n\r\n        for (uint256 i = 0; i < sellerStats[sellersAddress].totalSales; i++) {\r\n            SaleInfo memory sale = sales[sellersAddress][i];\r\n\r\n            if (\r\n                sale.presaleAddress == presale &&\r\n                sale.cancelled == false &&\r\n                sale.walletAdded == false &&\r\n                sale.buyerAddress == walletToAdd\r\n            ) {\r\n                saleIndex = i;\r\n                saleInfo = sale;\r\n                break;\r\n            }\r\n        }\r\n\r\n        if (msg.sender == walletToAdd) {\r\n            require(\r\n                saleInfo.buyerAcceptedTimestamp != 0,\r\n                \"You have not accepted this sale yet\"\r\n            );\r\n        }\r\n\r\n        if (saleInfo.price == 0) {\r\n            revert(\"Sale does not exist\");\r\n        }\r\n\r\n        if (\r\n            msg.sender != saleInfo.buyerAddress &&\r\n            msg.sender != saleInfo.sellerAddress\r\n        ) {\r\n            revert(\"You are not the buyer or seller of this sale\");\r\n        }\r\n        require(saleInfo.cancelled == false, \"Sale has already been cancelled\");\r\n\r\n        // check if sale has been completed.\r\n        require(\r\n            saleInfo.walletAdded == false,\r\n            \"Wallet has already been added to the presale\"\r\n        );\r\n        require(\r\n            saleInfo.moneySentToSellerByContract == false,\r\n            \"Money has already been sent to the seller\"\r\n        );\r\n\r\n        // Seller can cancel anytime before sale completes.\r\n\r\n        // Buyer can't. Seller may have submitted the wallet, before it get's added he can maliciously cancel the sale and get a refund.\r\n        // He can only cancel within 5 minutes of accepting the sale.\r\n        if (msg.sender == saleInfo.buyerAddress) {\r\n            bool buyerWalletAdded = isUserWhitelistedCustom(\r\n                saleInfo.presaleAddress,\r\n                saleInfo.buyerAddress\r\n            );\r\n\r\n            if (buyerWalletAdded == true) {\r\n                revert(\r\n                    \"Your wallet has already been added to the presale. You can't cancel the sale even if if you recently accepted it\"\r\n                );\r\n            }\r\n\r\n            uint256 timeDifference = block.timestamp -\r\n                saleInfo.buyerAcceptedTimestamp;\r\n\r\n            // we know that he isnt WL...\r\n\r\n            // if presale hasn't started yet and its been more than 5 minutes.. REVERT.\r\n            if (\r\n                saleInfo.presaleStartTime >= block.timestamp &&\r\n                timeDifference > 5 minutes\r\n            ) {\r\n                // we revert to give seller a chance to get buyers wallet added. when the presale starts, the buyer can cancel the sale.\r\n                revert(\r\n                    \"You can't cancel a sale after 5 minutes of accepting it (as a buyer)\"\r\n                );\r\n            }\r\n        }\r\n\r\n        saleInfo.cancelled = true;\r\n\r\n        if (saleInfo.buyerAcceptedSaleAndSentBnbToContract == true) {\r\n            bool refunded = payable(saleInfo.buyerAddress).send(saleInfo.price);\r\n\r\n            require(refunded == true, \"Refund failed\");\r\n        }\r\n\r\n        emit RefundSent(saleInfo.buyerAddress, saleInfo.price);\r\n\r\n        sellerStats[sellersAddress].totalSalesCancelled++;\r\n        sellerStats[sellersAddress].totalSalesPending--;\r\n        sales[sellersAddress][saleIndex] = saleInfo;\r\n\r\n        if (totalOpenBookSales > 0) {\r\n            totalOpenBookSales--;\r\n        }\r\n\r\n        if (totalPendingOpenBookSalesForSeller[saleInfo.sellerAddress] > 0) {\r\n            totalPendingOpenBookSalesForSeller[saleInfo.sellerAddress]--;\r\n        }\r\n\r\n        // remove seller from sellersWithOpenBookSales if he has any. We assume he does since he has some openBookSales.\r\n        if (totalPendingOpenBookSalesForSeller[saleInfo.sellerAddress] == 0) {\r\n            for (uint256 i = 0; i < sellersWithOpenBookSales.length; i++) {\r\n                if (sellersWithOpenBookSales[i] == saleInfo.sellerAddress) {\r\n                    uint256 lastIndex = sellersWithOpenBookSales.length - 1;\r\n                    sellersWithOpenBookSales[i] = sellersWithOpenBookSales[\r\n                        lastIndex\r\n                    ];\r\n\r\n                    sellersWithOpenBookSales.pop();\r\n                }\r\n            }\r\n        }\r\n    }\r\n\r\n    function completeSale(\r\n        address seller,\r\n        address presale,\r\n        address walletToAdd // seller , presale, walletToAdd used to identify the sale\r\n    ) public {\r\n        SaleInfo memory saleInfo;\r\n        uint256 saleIndex;\r\n\r\n        for (uint256 i = 0; i < sellerStats[seller].totalSales; i++) {\r\n            SaleInfo memory sale = sales[seller][i];\r\n\r\n            if (\r\n                sale.presaleAddress == presale &&\r\n                sale.cancelled == false &&\r\n                sale.walletAdded == false &&\r\n                sale.buyerAddress == walletToAdd &&\r\n                sale.buyerAcceptedSaleAndSentBnbToContract == true\r\n            ) {\r\n                saleIndex = i;\r\n                saleInfo = sale;\r\n                break;\r\n            }\r\n        }\r\n\r\n        if (saleInfo.price == 0) {\r\n            revert(\r\n                \"No valid sale found. Must not be cancelled, wallet must not be added, buyer must have accepted sale and sent BNB to contract, and money must not have been sent to seller by contract.\"\r\n            );\r\n        }\r\n        require(\r\n            saleInfo.buyerAcceptedSaleAndSentBnbToContract == true,\r\n            \"Buyer has not accepted sale and sent BNB to the contract\"\r\n        );\r\n        require(saleInfo.cancelled == false, \"Sale has been cancelled\");\r\n        require(\r\n            saleInfo.walletAdded == false,\r\n            \"Wallet has already been added to the presale\"\r\n        );\r\n        require(\r\n            saleInfo.moneySentToSellerByContract == false,\r\n            \"Money has already been sent to the seller\"\r\n        );\r\n\r\n        // presale must have started.\r\n        require(\r\n            saleInfo.presaleStartTime <= block.timestamp,\r\n            \"Presale has not started yet\"\r\n        );\r\n\r\n        bool buyerWalletAdded = isUserWhitelistedCustom(\r\n            saleInfo.presaleAddress,\r\n            saleInfo.buyerAddress\r\n        );\r\n\r\n        if (buyerWalletAdded == false) {\r\n            revert(\"Buyer's wallet has not been added to the presale\");\r\n        } else {\r\n            saleInfo.walletAdded = true;\r\n\r\n            if (saleInfo.buyerAcceptedSaleAndSentBnbToContract == true) {\r\n                if (feesEnabled == true) {\r\n                    uint256 fee = (saleInfo.price * feePercentage) / 100;\r\n                    payable(feeAddress).transfer(fee);\r\n                    payable(seller).transfer(saleInfo.price - fee);\r\n                } else {\r\n                    payable(seller).transfer(saleInfo.price);\r\n                }\r\n                saleInfo.moneySentToSellerByContract = true;\r\n            }\r\n            sales[seller][saleIndex] = saleInfo;\r\n            sellerStats[seller].totalSalesSuccessful++;\r\n            sellerStats[seller].totalSalesPending--;\r\n        }\r\n    }\r\n\r\n    // assume that for the same presale, a buyer can have a cancelled sale with the same wallet address,\r\n    // ill return an array.\r\n    function getSaleInfo(\r\n        address seller,\r\n        address presale,\r\n        address walletToAdd\r\n    ) public view returns (SaleInfo[] memory) {\r\n        SaleInfo[] memory saleInfo = new SaleInfo[](\r\n            sellerStats[seller]\r\n                .totalSalesToABuyerForAPresale[presale]\r\n                .salesToABuyerForAPresale[walletToAdd]\r\n        );\r\n\r\n        uint256 saleInfoCounter = 0;\r\n\r\n        for (uint256 i = 0; i < sellerStats[seller].totalSales; i++) {\r\n            SaleInfo memory sale = sales[seller][i];\r\n\r\n            if (\r\n                sale.presaleAddress == presale &&\r\n                sale.buyerAddress == walletToAdd\r\n            ) {\r\n                saleInfo[saleInfoCounter] = sale;\r\n                saleInfoCounter++;\r\n            }\r\n        }\r\n        if (saleInfo.length == 0) {\r\n            revert(\"Can't get sale info of a sale that doesn't exist. \");\r\n        }\r\n        return saleInfo;\r\n    }\r\n\r\n    function getSalesForSeller(\r\n        address seller\r\n    ) public view returns (SaleInfo[] memory) {\r\n        return sales[seller];\r\n    }\r\n\r\n    receive() external payable {}\r\n\r\n    function migratefunds() public onlyOwner {\r\n        payable(owner).transfer(address(this).balance);\r\n    }\r\n\r\n    function setOwner(address _owner) public onlyOwner {\r\n        owner = _owner;\r\n    }\r\n}\r\n",
  "sourcePath": "C:\\development\\crypto\\escrow\\truffle\\contracts\\OpenBookV2.sol",
  "compiler": {
    "name": "solc",
    "version": "0.8.14+commit.80d49f37.Emscripten.clang"
  },
  "schemaVersion": "3.4.11",
  "updatedAt": "2023-04-14T16:43:18.046Z",
  "devdoc": {
    "kind": "dev",
    "methods": {},
    "version": 1
  },
  "userdoc": {
    "kind": "user",
    "methods": {},
    "version": 1
  }
}